:1000000030A50575F0FF800375F000C2A6D2A3C22B
:10001000A790060FE4931202C01202DA6003A380D5
:10002000F3900600E4931202CD1202DA6003A3807B
:10003000F390061574C21202C0E4931202CD74C587
:100040001202C0E4931202CDE474C051C051DA121E
:1000500002561202CD1202DA540FF540E474C15177
:10006000C051DA1202561202CD1202DA540FF541D3
:10007000E474C351C051DA1202561202CD1202DAF0
:10008000540FF542E474C451C051DA120256120200
:10009000CD1202DA540FF543E474C651C051DA129E
:1000A00002561202CD1202DA540FF544E474C7511D
:1000B000C051DA1202561202CD1202DA540FF5457F
:1000C000E474C951C01202561202CD1202DA540F62
:1000D000F5468000A845A944AA43AB42AC41AD40D7
:1000E000AE461202DA1202DA740151C051DA74809B
:1000F00051C051DA12031930A6348000900684747E
:10010000CE1202C0E4931202CDE4E5F06002800F4B
:1001100090068274CD1202C0E4931202CD800F903B
:10012000068374CD1202C0E4931202CD80009006C3
:100130001574C31202C0E4931202CD90061574C860
:100140001202C0E4931202CD90061674C01202C0CF
:100150001202DAED931202CD1202DA74C11202C059
:100160001202DAEC931202CD1202DA74C51202C046
:100170001202DAEB931202CD1202DA74C61202C036
:100180001202DAEA931202CD1202DA74CA1202C023
:100190001202DAE9931202CD1202DA74CB1202C013
:1001A0001202DAE8931202CD1202F830A70B7401A2
:1001B0001202C01202DA02002108B80A3580007863
:1001C0000009B9062D800079000ABA0A2580007A54
:1001D000000BBB061D80007B000CC2A31202F8D2EC
:1001E000A30830A603020219BD02028011BC0A0254
:1001F00080030200F77C000DBD021B0200F7BC0467
:100200000280030200F77C007D000546AF46BF0870
:100210003475460180000200EEBD01028011BC0A67
:100220000280030200F77C000DBD01270200F7BC2D
:100230000213E4E5F0F4F5F0B4000A0546AF46BF5A
:100240000803754601BC030280030200EE7C017DB9
:100250000080000200EE740FF5B075B00FE5B054E9
:100260000FB40FF651DAE5B0540FB40F0280F55118
:10027000DAE5B0540FB40F0280EA75B0EFE5B05480
:100280000FB40F2175B0DFE5B0540FB40F1C75B07B
:100290007FE5B0540FB40F1775B0BFE5B0540FB47D
:1002A0000F12020264900309800D90030D800890E4
:1002B00003158003900311135003A380FAE49322E3
:1002C000F590C2A0C2A1D2A251DAC2A222F590D268
:1002D000A0C2A1D2A251DAC2A222D2D27E0A7F0546
:1002E000DFFEDEFAC2D222D2D47DEB7E077FE6DFCC
:1002F000FEDEFADDF6C2D422D2D37DEB7EE67F07A6
:10030000DFFEDEFADDF6C2D3223738392F34353638
:100310002A3132332D99303D2BE4E546B40110905B
:100320000620E4931202CD1202DA6003A380F3B434
:10033000021090062EE4931202CD1202DA6003A39B
:1003400080F3B4031090063CE4931202CD1202DA5B
:100350006003A380F3B4041090064AE4931202CD24
:100360001202DA6003A380F3B40510900658E493F8
:100370001202CD1202DA6003A380F3B406109006D5
:1003800066E4931202CD1202DA6003A380F3B4078D
:1003900010900674E4931202CD1202DA6003A38077
:0203A000F32246
:1006000020202020494E495449414C495A45003840
:100610000E010680003A30313233343536373839FE
:100620002020202020204441593A534154002020CA
:10063000202020204441593A53554E0020202020AC
:1006400020204441593A4D4F4E00202020202020A8
:100650004441593A5455450020202020202044414F
:10066000593A574544002020202020204441593A3F
:10067000544855002020202020204441593A465219
:05068000490041504D4E
:00000001FF
